{
    "contractName": "HelloWorld",
    "abi": [
        {
            "constant": true,
            "inputs": [],
            "name": "say",
            "outputs": [
                {
                    "name": "",
                    "type": "string"
                }
            ],
            "payable": false,
            "stateMutability": "view",
            "type": "function"
        },
        {
            "constant": false,
            "inputs": [
                {
                    "name": "_greeting",
                    "type": "string"
                }
            ],
            "name": "setGreeting",
            "outputs": [],
            "payable": false,
            "stateMutability": "nonpayable",
            "type": "function"
        },
        {
            "constant": true,
            "inputs": [],
            "name": "greeting",
            "outputs": [
                {
                    "name": "",
                    "type": "string"
                }
            ],
            "payable": false,
            "stateMutability": "view",
            "type": "function"
        },
        {
            "inputs": [
                {
                    "name": "_greeting",
                    "type": "string"
                }
            ],
            "payable": false,
            "stateMutability": "nonpayable",
            "type": "constructor"
        }
    ],
    "bytecode": "608060405234801561001057600080fd5b506040516104bf3803806104bf8339818101604052602081101561003357600080fd5b81019080805164010000000081111561004b57600080fd5b8201602081018481111561005e57600080fd5b815164010000000081118282018710171561007857600080fd5b505080519093506100929250600091506020840190610099565b5050610134565b828054600181600116156101000203166002900490600052602060002090601f016020900481019282601f106100da57805160ff1916838001178555610107565b82800160010185558215610107579182015b828111156101075782518255916020019190600101906100ec565b50610113929150610117565b5090565b61013191905b80821115610113576000815560010161011d565b90565b61037c806101436000396000f3fe608060405234801561001057600080fd5b50600436106100415760003560e01c8063954ab4b214610046578063a4136862146100c3578063ef690cc01461016b575b600080fd5b61004e610173565b6040805160208082528351818301528351919283929083019185019080838360005b83811015610088578181015183820152602001610070565b50505050905090810190601f1680156100b55780820380516001836020036101000a031916815260200191505b509250505060405180910390f35b610169600480360360208110156100d957600080fd5b8101906020810181356401000000008111156100f457600080fd5b82018360208201111561010657600080fd5b8035906020019184600183028401116401000000008311171561012857600080fd5b91908080601f01602080910402602001604051908101604052809392919081815260200183838082843760009201919091525092955061020a945050505050565b005b61004e610221565b60008054604080516020601f60026000196101006001881615020190951694909404938401819004810282018101909252828152606093909290918301828280156101ff5780601f106101d4576101008083540402835291602001916101ff565b820191906000526020600020905b8154815290600101906020018083116101e257829003601f168201915b505050505090505b90565b805161021d9060009060208401906102af565b5050565b6000805460408051602060026001851615610100026000190190941693909304601f810184900484028201840190925281815292918301828280156102a75780601f1061027c576101008083540402835291602001916102a7565b820191906000526020600020905b81548152906001019060200180831161028a57829003601f168201915b505050505081565b828054600181600116156101000203166002900490600052602060002090601f016020900481019282601f106102f057805160ff191683800117855561031d565b8280016001018555821561031d579182015b8281111561031d578251825591602001919060010190610302565b5061032992915061032d565b5090565b61020791905b80821115610329576000815560010161033356fea265627a7a72305820fba0d3d5742e4d910378670a79f87fd8871e647469a0856040590a18b133836d64736f6c634300050a0032",
    "sourcePath": "c:/solidity/HelloWorld.sol",
    "compiler": {
        "name": "solc",
        "version": "0.5.10+commit.5a6ea5b1"
    },
    "functionHashes": {
        "greeting()": "ef690cc0",
        "say()": "954ab4b2",
        "setGreeting(string)": "a4136862"
    },
    "gasEstimates": {
        "creation": {
            "codeDepositCost": "178400",
            "executionCost": "infinite",
            "totalCost": "infinite"
        },
        "external": {
            "greeting()": "infinite",
            "say()": "infinite",
            "setGreeting(string)": "infinite"
        }
    }
}